:020000040000FA
:1000000000800220150400001D0400001F040000F1
:10001000210400002304000025040000000000006B
:10002000FFFFFFFF000000000000000027040000A9
:1000300029040000000000002B0400002D04000033
:100040002F04000033040000370400003B040000CC
:100050003F04000043040000470400004B0400007C
:100060004F04000053040000570400005B0400002C
:100070003D5B000063040000670400006B040000A7
:100080006F04000073040000770400007B0400008C
:100090007F04000083040000870400008B0400003C
:1000A0008F04000093040000814100009B040000C5
:1000B0009F040000A3040000A7040000AB0400009C
:1000C000AF040000B3040000B7040000BB0400004C
:1000D000BF040000C3040000C7040000CB040000FC
:1000E000CF040000D3040000D7040000DB040000AC
:1000F000DF040000E3040000E7040000EB0400005C
:10010000EF040000F3040000F7040000FB0400000B
:10011000FF04000065570000070500000B05000004
:100120000F050000000000000000000000000000BB
:1001300000000000000000000000000000000000BF
:1001400000000000000000000000000000000000AF
:10015000000000000000000000000000000000009F
:10016000000000000000000000000000000000008F
:10040000DFF80CD000F046FB00480047E57C000018
:10041000008002203F4880473F480047FEE7FEE754
:10042000FEE7FEE7FEE7FEE7FEE7FEE7FEE73B4806
:1004300000473B4800473B4800473B4800473B4894
:1004400000473B4800473B4800473B4800473B4884
:1004500000473B4800473B4800473B4800473B4874
:1004600000473B4800473B4800473B4800473B4864
:1004700000473B4800473B4800473B4800473B4854
:1004800000473B4800473B4800473B4800473B4844
:1004900000473B4800473B4800473B4800473B4834
:1004A00000473B4800473B4800473B4800473B4824
:1004B00000473B4800473B4800473B4800473B4814
:1004C00000473B4800473B4800473B4800473B4804
:1004D00000473B4800473B4800473B4800473B48F4
:1004E00000473B4800473B4800473B4800473B48E4
:1004F00000473B4800473B4800473B4800473B48D4
:1005000000473B4800473B4800473B4800473B48C3
:100510000047FEE7E561000001040000130500004C
:10052000B52400003141000059410000F957000096
:1005300025580000515800007D5800001D6600003D
:1005400013050000012400000B2400001305000027
:100550001F240000D93C00003D3D0000A13D0000EB
:10056000053E0000693E0000CD3E0000130500007E
:10057000130500001305000013050000130500001B
:10058000DD2F000013050000130500001305000017
:10059000130500001305000013050000A958000012
:1005A000D5580000015900002D5900001524000005
:1005B000292400001305000013050000313F00004E
:1005C000953F00008D610000B51400000D1500007E
:1005D00065150000BD15000013050000130500009F
:1005E000BD3C0000130500001305000013050000CA
:1005F000130500001305000013050000130500009B
:100600002DE9F05F0546002092469B468846064647
:10061000814640241BE0284641464746224600F0DA
:1006200088F853465A46C01A914110D311461846CD
:10063000224600F06FF82D1A67EB01084F4622465C
:100640000120002100F066F817EB00094E41201E42
:10065000A4F10104DFDC484631462A464346BDE8A2
:10066000F09F40EA01039B0703D009E008C9121F6D
:1006700008C0042AFAD203E011F8013B00F8013B5C
:10068000521EF9D27047D2B201E000F8012B491E88
:10069000FBD270470022F6E710B513460A4604461F
:1006A0001946FFF7F0FF204610BD421C10F8011B51
:1006B0000029FBD1801A704730B5041E71F1000487
:1006C00004DB4FF00044404264EB0101141E73F15F
:1006D000000405DB1C464FF00043524263EB040369
:1006E000994208BF904230BD30B50B46014600200C
:1006F0002022012409E021FA02F59D4205D303FAE4
:1007000002F5491B04FA02F52844151EA2F1010264
:10071000F1DC30BD202A04DB203A00FA02F100208F
:1007200070479140C2F1200320FA03F3194390402F
:100730007047202A04DB203A21FA02F0002170479A
:1007400021FA02F3D040C2F1200291400843194639
:1007500070472DE9FE4F804681EA0300C00F0C462A
:10076000009021F0004123F00045B8EB0200A941C0
:1007700005D24046214690461C460B46024623F0D1
:100780000040104347D0270DC7F30A00C3F30A51B6
:100790000290401A019040286BDAC3F3130040F432
:1007A000801B0098924620B10023D2EB030A63EB32
:1007B0000B0B01985946C0F140025046FFF7AAFFC3
:1007C00006460D4650465946019A00F075F910EB61
:1007D00008006141002487EA115284EAE7731A4352
:1007E00040D0009A62B3019A012A4FEA075215DC01
:1007F000001B61EB02014FF0004202EA0752CDE913
:100800000042001C41F5801132462B4600F075F97C
:1008100003B0BDE8F08F40462146F9E7001B61EBCD
:100820000201001C41F5801300185B412018A2F55D
:10083000001747EB030140EAD570B6196D4111E08E
:100840006D084FEA360645EAC0754FEA0752001BAD
:1008500061EB0201001C41F5801149084FEA3000AC
:100860000019514132462B4603B0BDE8F04F00F06D
:1008700035B90098012240000023D0EB020263EB5F
:10088000E073009821464FEAE074B8EB000061EB9A
:100890000401E9E783F000435BE781F0004158E79A
:1008A0002DE9FE4F81EA030404F0004421F00041E9
:1008B00000944FF0000B23F0004350EA01045ED097
:1008C00052EA03045BD0C3F30A54C1F30A552C4423
:1008D000A4F2F3340194A0FB0254C1F3130141F4D8
:1008E0008011C3F3130343F4801301FB024400FBA4
:1008F000034E840A970A44EA815447EA8357A4FBCB
:10090000076802958D0A05FB07854FEA932C04FBC7
:100910000C542705029D4FEA065847EA1637B5EBF7
:1009200008056EEB070C870E920E47EA811742EA24
:100930008312A7FB0201B6EB0B0164EB00042B0D45
:1009400043EA0C335E1844EB1C50DA465146E7FB91
:100950000201C5F313044FEA0B3343EA14534FEA81
:100960000432019C43EA0603A4F10C040294009CA7
:10097000CDE900B400F0C1F803B0BDE8F08F00206D
:100980000146F9E72DE9F04D81EA030404F0004B3C
:1009900021F0004514464FF0000A23F0004150EAD0
:1009A000050220D054EA01021DD0C5F30A570246C1
:1009B000C5F31303C1F31300C1F30A5640F48015C5
:1009C00043F48013A7EB0608101BD64608F2FD3847
:1009D00073EB050002D308F1010801E092185B41B6
:1009E000B8F1000F03DA00200146BDE8F08D0020C9
:1009F0004FF48011064684460EE0171B73EB050783
:100A000005D3121B63EB050306434CEA010C4908AE
:100A10004FEA300092185B4150EA0107EDD152EAEB
:100A2000030012D082EA040083EA0501084305D0DE
:100A3000101BAB4106D20122002306E000224FF03A
:100A4000004302E06FF0010253101AEB06004CEB7A
:100A5000085110EB0A0041EB0B01BDE8F04D00F02E
:100A60003DB8C1F30A52C1F3130140F2FF3341F420
:100A700080119A4202DA00200146704740F2334367
:100A80009A42A2F2334202DC5242FFF752BEFFF713
:100A900041BE0000064C074D06E0E06840F001034F
:100AA00094E8070098471034AC42F6D3FFF7ACFC4B
:100AB0004094000060940000202A06DBCB17203A07
:100AC00041FA02F043EAE07306E041FA02F3D04053
:100AD000C2F12002914008431946704710B5141E18
:100AE00073F1000408DA401C41F1000192185B41E7
:100AF0001A4301D120F0010010BD2DE9F04D9246BE
:100B00009B4611B1B1FA81F202E0B0FA80F22032D4
:100B10009046FFF7FFFD04460F4640EA0A0041EA0F
:100B20000B0153465A46084313D0114653EA0100BD
:100B300019D0C8F140025046FFF7FBFD05460E46AE
:100B4000504659464246FFF7E5FD084305D00120CF
:100B500004E020463946BDE8F08D0020054346EA12
:100B6000E0762C4337430A986305E40AA0EB0800BB
:100B70000022FD0A44EA47540A3002D5002001460B
:100B8000E9E7010510196941DDE9084500196941E6
:100B9000BDE8F04DA2E770B58D1810F8014B14F0C8
:100BA000030201D110F8012B231106D110F8013BEB
:100BB00003E010F8016B01F8016B521EF9D1ABB1E3
:100BC00010F8012B04F00C048A1A0C2C03D0A2EBB1
:100BD00084129B1C08E010F8014BA2EB0422F8E7FA
:100BE00012F8014B01F8014B5B1EF9D5A942D4D391
:100BF000002070BD10B58AB001A804F055FC2B4848
:100C000001904FF4F070ADF8080002208DF80A0052
:100C100008208DF80B002B208DF80C004FF4887005
:100C2000ADF80E000A208DF8100004208DF8110098
:100C30000C208DF812004002ADF814004FF0204057
:100C4000069006208DF8200020208DF82500012038
:100C50008DF824000D2000F089FE0446224601A9EB
:100C6000134804F079FC0421114804F092FB35206C
:100C700000F01F02012191404209920002F1E0229E
:100C8000C2F8001100BF00BF0948806940F00100B0
:100C90000749886100BF00BF0846806940F40060D2
:100CA000886100BF00200AB010BD000040548900D8
:100CB0000030084000B58DB0042001218140114A68
:100CC000030A42F8231000BF0F4804F069FE0F48E2
:100CD00001F02EFA1C220E4906A8FFF7C2FC694655
:100CE00006A801F0FDFA032005906846059901F079
:100CF00011FB40F2013000F08DFC0448054908600A
:100D00000DB000BD3006004000D2496B0095BA0A14
:100D1000D48200000000002070B50C4804F0C4FE2E
:100D2000192000F023FE05462B4605224FF4E13141
:100D3000074802F021FC044604B904E04A2205A158
:100D400009A005F087FE204670BD00000B000100E1
:100D5000006008405352435C426F6172645C626F92
:100D60006172642E630000006B5374617475735F6D
:100D700053756363657373203D3D20726573756CB5
:100D80007400000010B586B04FF48E7000F042FC85
:100D9000012202212D2001F0ABF904A804F0ECFFA0
:100DA00004A90E4805F046F805208DF80C00012036
:100DB0008DF80D0005208DF80E000A2000F0D6FDFC
:100DC000044602A84FF47A73012203A9CDE900403A
:100DD000024805F0E1F806B010BD000000500840E0
:100DE00010B50D2000F050FC0B2000F04DFC40F23F
:100DF00001731D220021FE4804F006F940F2017340
:100E00001E220021FA4804F0FFF840F20673122275
:100E10000021F74804F0F8F840F20673132200218D
:100E2000F34804F0F1F840F2067314220021F04870
:100E300004F0EAF840F2067315220021EC4804F0B1
:100E4000E3F840F2067305220121E94804F0DCF8DA
:100E500040F2067306220121E54804F0D5F840F27D
:100E6000067307220121E24804F0CEF840F206732F
:100E700008220121DE4804F0C7F840F206731A2266
:100E80000121DB4804F0C0F840F206731B22012167
:100E9000D74804F0B9F840F2067310220121D44873
:100EA00004F0B2F840F2067317220121D04804F092
:100EB000ABF840F2067318220121CD4804F0A4F8E3
:100EC00040F2067319220121C94804F09DF840F24E
:100ED000067319220321C64804F096F840F20673FF
:100EE00002220021C24804F08FF840F20673032268
:100EF0000021BF4804F088F840F206730422002164
:100F0000BB4804F081F840F2067305220021B8487E
:100F100004F07AF840F2067306220021B44804F087
:100F200073F840F2067307220021B14804F06CF810
:100F300040F2067308220021AD4804F065F840F243
:100F4000067309220021AA4804F05EF840F20673F5
:100F500013220121A64804F057F840F20673142228
:100F60000121A34804F050F840F206731522012134
:100F70009F4804F049F840F20673042201219C487E
:100F800004F042F840F206731C220121984804F054
:100F90003BF840F206731D220121954804F034F815
:100FA00040F206731E220121914804F02DF840F210
:100FB00006731F2201218E4804F026F840F20673C2
:100FC000092201218A4804F01FF840F206730A2220
:100FD0000121874804F018F840F206730B22012122
:100FE000834804F011F840F206730C220121804876
:100FF00004F00AF840F206730D2201217C4804F047
:1010000003F840F206730E220121794803F0FCFF39
:1010100040F206730F220121754803F0F5FF40F2FC
:1010200006730F220021724803F0EEFF4FF4807325
:101030001B2202216E4803F0E7FF40F20133152224
:1010400002216B4803F0E0FF40F201331622022137
:10105000674803F0D9FF40F20133172202216448A8
:1010600003F0D2FF40F2013318220221604803F05E
:10107000CBFF40F20133192202215D4803F0C4FF87
:1010800040F201331C220221594803F0BDFF40F217
:1010900001331D220221564803F0B6FF40F201330E
:1010A0001E220221524803F0AFFF40F201331F22FB
:1010B00002214F4803F0A8FF40F201330022032130
:1010C0004B4803F0A1FF40F20133012203214848BD
:1010D00003F09AFF40F2013305220321444803F054
:1010E00093FF40F2013306220321414803F08CFFB5
:1010F00040F20133072203213D4803F085FF40F20F
:101100000133082203213A4803F07EFF40F2013305
:1011100009220321364803F077FF40F201230D2214
:101120000221334803F070FF40F201330B22022109
:101130002F4803F069FF40F20133102202212C48AE
:1011400003F062FF40F201330E220221284803F02F
:101150005BFF40F201330F220221254803F054FFC8
:1011600040F2067312220021214803F04DFF40F2A5
:101170000673132200211E4803F046FF40F2067357
:10118000142200211A4803F03FFF40F20673152293
:101190000021174803F038FF40F2067305220121B1
:1011A000134803F031FF40F2067306220121104874
:1011B00003F02AFF40F20673072201210C4803F0D6
:1011C00023FF40F2067308220121094803F01CFFA7
:1011D00040F206731A220121054803F015FF40F280
:1011E00006731B220121024803F00EFF02E00000FB
:1011F0000010004040F2067310220121844803F0E1
:1012000003FF40F2067317220121814803F0FCFE20
:1012100040F20673182201217D4803F0F5FE40F2EA
:101220000673192201217A4803F0EEFE40F206739C
:1012300019220321764803F0E7FE40F206730222EA
:101240000021734803F0E0FE40F206730322002100
:101250006F4803F0D9FE40F20673042200216C4867
:1012600003F0D2FE40F2067305220021684803F025
:10127000CBFE40F2067306220021654803F0C4FE4F
:1012800040F2067307220021614803F0BDFE40F2E0
:101290000673082200215E4803F0B6FE40F2067392
:1012A000092200215A4803F0AFFE40F206731322D0
:1012B0000121574803F0A8FE40F2067314220121D1
:1012C000534803F0A1FE40F2067315220121504855
:1012D00003F09AFE40F20673042201214C4803F009
:1012E00093FE40F206731C220121494803F08CFE54
:1012F00040F206731D220121454803F085FE40F2AD
:1013000006731E220121424803F07EFE40F206735E
:101310001F2201213E4803F077FE40F206730922A6
:1013200001213B4803F070FE40F206730A220121BE
:10133000374803F069FE40F206730B22012134485E
:1013400003F062FE40F206730C220121304803F0E4
:101350005BFE40F206730D2201212D4803F054FE7E
:1013600040F206730E220121294803F04DFE40F29F
:1013700006730F220121264803F046FE40F2067351
:101380000F220021224803F03FFE40F20173172292
:1013900003211F4803F038FE40F201731822032195
:1013A0001B4803F031FE40F20313122202211848B9
:1013B00003F02AFE40F2031313220221144803F023
:1013C00023FE40F2031314220221114803F01CFEF5
:1013D0004FF48173012204210D4803F015FE4FF4F0
:1013E0008173022204210A4803F00EFE4FF4817338
:1013F00003220421064803F007FE40F201130B22EA
:101400000321034803F000FE01200249086010BDDB
:10141000001000402004004000B591B000208DF87D
:1014200040008DF8410001208DF842008DF80C003D
:1014300043F609500490122005902A20069043207C
:101440000790122008900C2000F090FA1749B1FB89
:10145000F0F0801D0A9005990A98084409903C20F4
:101460000B900C9043200D900C200E9002208DF8D4
:101470003C0000208DF800008DF8010002208DF85E
:1014800002002320ADF804000020ADF8060009207A
:101490008DF8080010A9064802F0A4FB01236A4653
:1014A00003A9034802F010FA11B000BD00CA9A3B2C
:1014B0000010084010B50848006800B105E04FF47E
:1014C000487206A10BA005F0C5FA034801680D4853
:1014D0000D4A1268904710BD540000205352435CDF
:1014E000447269766572735C66736C5F6D63616E7E
:1014F0002E630000735F6D63616E48616E646C659E
:101500005B305D0000D009405C00002010B5084849
:10151000006800B105E040F2273206A10BA005F0FB
:1015200099FA034801680D480D4A1268904710BDAA
:10153000540000205352435C447269766572735CB8
:1015400066736C5F6D63616E2E630000735F6D6325
:10155000616E48616E646C655B305D0000D009406F
:101560005C00002010B50848406800B105E04FF469
:101570004C7206A10BA005F06DFA034841680D48B6
:101580000D4A1268904710BD540000205352435C2E
:10159000447269766572735C66736C5F6D63616ECD
:1015A0002E630000735F6D63616E48616E646C65ED
:1015B0005B315D0000E009405C00002010B5084888
:1015C000406800B105E040F2373206A10BA005F0FB
:1015D00041FA034841680D480D4A1268904710BD12
:1015E000540000205352435C447269766572735C08
:1015F00066736C5F6D63616E2E630000735F6D6375
:10160000616E48616E646C655B315D0000E00940AD
:101610005C000020F0B500240F4D002316E003EB22
:101620004306B600F040C1B270B1C0F30326761E87
:10163000F2B21F2905D10126B707FE64074E3262B8
:1016400003E045F8212000E001245B1C022B01D8B7
:10165000002CE4D0F0BD00008002004000000440F7
:10166000010A032905D201228240054B43F82120BB
:1016700005E001229307DA648240024B5A61704709
:101680002002004000000440010A032905D2012283
:101690008240054B43F8212005E001229307DA64DC
:1016A0008240024B5A617047200200400000044013
:1016B00068B10C49096841F400710A4A1160111DB2
:1016C000096841F008020749091D0A6008E04FF463
:1016D0000071044A103A1160082202490C390A606C
:1016E000704700003006004000B51148006810B98E
:1016F00000F0AEFA00BD0E480068012802D100F0EB
:10170000ABFBF7E70A480068022802D100F0CAFCE8
:10171000F0E707480068032802D100F075F8E9E710
:1017200003480068072801D10020E3E70020E1E733
:10173000A402004010B500BF0849096A01F0030186
:101740000C4614B1012C05D102E000F09FF803E033
:10175000034801E0002000BF00BF10BD00000440AE
:10176000001BB70000B500210948006800F0070021
:1017700010B1012806D101E0064905E000F0C4F8E7
:10178000014601E0002100BF00BF084600BD000087
:1017900098020040001BB7002DE9F0470446FFF710
:1017A000E1FF0746208800F40040F0B9D4E90001C9
:1017B00006F087FA8146A168206806F072FA804632
:1017C000B7FBF9F7E168206806F05EFA8246A7FBEE
:1017D0000A5006464246002328463146FEF710FFCF
:1017E00005460220A5FB005100E03D462846BDE825
:1017F000F087000010B504462046FFF7CDFF0149F1
:10180000086010BD1000002001480068704700000B
:101810001000002000B51C48006810B900F036F830
:1018200000BD19480068012802D100F06DF8F7E703
:1018300015480068022802D100F03AFCF0E712488F
:101840000068032802D100F003FAE9E70E480068B7
:10185000042802D100F000FBE2E70B4800680528ED
:1018600002D100F01FFCDBE707480068062802D120
:10187000FFF7CAFFD4E704480068072802D100F048
:101880004BFACDE70020CBE78802004000B51D48A9
:10189000006830B91B48001F006810B900F0CAF991
:1018A00000BD1848006838B91648001F00680128B4
:1018B00002D100F029F8F3E71248006838B911485E
:1018C000001F0068022802D100F0F2FBE8E70D4893
:1018D000006838B90B48001F0068032802D100F0E7
:1018E000B7F9DDE707480068022802D100F0B4FA32
:1018F000D6E704480068032802D100F00DFACFE7CC
:101900000020CDE78402004000487047001BB7006C
:1019100010B50446144850F8240010B900F08AF9B4
:1019200010BD114850F82400012802D100F090F9B0
:10193000F6E70D4850F82400022802D100F08CFA96
:10194000EEE7094850F82400032802D100F0A0F97E
:10195000E6E7054850F82400042803D1152000F0DC
:1019600005F8DDE70020DBE7B002004070B5054672
:10197000232D70D2DFE805F012161F5B29333D4797
:101980006F51CFD9F2F0EFEE5F63676F6B7092CB60
:10199000EDECEBEAE9E8E7E6E5E4E300FFF776FFE4
:1019A000044642E1FFF772FFA1490968C9B2491C28
:1019B000B0FBF1F439E1FFF72DFF9D49091D0968DE
:1019C000C9B2491CB0FBF1F42FE100F09FFA98492D
:1019D00010310968C9B2491CB0FBF1F425E1FFF7E9
:1019E00083FE934914310968C9B2491CB0FBF1F474
:1019F0001BE100F017FB8E4918310968C9B2491C78
:101A0000B0FBF1F411E100F02DFB89491C310968AC
:101A1000C9B2491CB0FBF1F407E100F05DF984495B
:101A20002C310968C9B2491CB0FBF1F4FDE000F0AB
:101A30000FF90446F9E000F0FDF80446F5E0FFF781
:101A400063FF0446F1E000F007FA0446EDE000F021
:101A50002FFB0446E9E0E6E075489838006810B9C5
:101A6000FFF714FF18E0724898380068012802D187
:101A700000F0F2F910E06E4898380068022802D1B0
:101A800000F0D8F808E06A4898380068032802D1C6
:101A900000F0DEF800E000200446C6E06448943818
:101AA000006810B900F0C6F828E061489438006872
:101AB000012802D100F0CCF820E05D48943800689D
:101AC000022802D100F0C8F918E05948943800689B
:101AD000032802D100F0DCF810E055489438006883
:101AE000042802D1FFF7D2FE08E05148943800687C
:101AF000052802D100F0DCFA00E0002004464C4842
:101B000028300068C0B2401CB4FBF0F48DE0FFF751
:101B100011FE044689E000F0A5F945493431096811
:101B2000C9B2491CB0FBF1F47FE000F0C1F94049B3
:101B30003C310968C9B2491CB0FBF1F475E06DE0B5
:101B400067E061E05BE055E04FE049E043E03DE005
:101B500037E032E027E01CE011E0FFE7FFF796FEF8
:101B600033490968C9B2491CB0FBF1F14FF080401C
:101B7000D0F8B803C0B2401CB1FBF0F455E000F05F
:101B800089F82B4930310968C9B2491CB0FBF1F41E
:101B90004BE0FFF77BFE264978390968C9B2491C3A
:101BA000B0FBF1F441E0FFF771FE21497439096897
:101BB000C9B2491CB0FBF1F437E000F069F8044603
:101BC00033E00020FFF7A4FE04462EE00120FFF7DB
:101BD0009FFE044629E00220FFF79AFE044624E017
:101BE0000320FFF795FE04461FE00420FFF790FE58
:101BF00004461AE00520FFF78BFE044615E0062098
:101C0000FFF786FE044610E00720FFF781FE04463A
:101C10000BE00820FFF77CFE044606E00920FFF7F2
:101C200077FE044601E0002400BF00BF204670BDDF
:101C3000800300400448006800F0100008B1002054
:101C400070470248FCE7000010060040001BB70088
:101C50000B48006800F0100008B1002070470948E8
:101C6000006800F0804008B90020F7E705480068E8
:101C700000F4804008B10448F0E70448EEE70000B3
:101C8000100600400005004000D8B805006CDC02DA
:101C90000020704700B50E48006810B9FFF7F6FD48
:101CA00000BD0B480068012802D100F013F8F7E7E7
:101CB00007480068022802D1FFF7CAFFF0E704488E
:101CC0000068032801D10020EAE70020E8E70000CF
:101CD000F40200400020704700B50E48006848B983
:101CE000FFF7B6FF0B49A8310968C9B2491CB0FB20
:101CF000F1F000BD07480068012802D1FFF784FD1C
:101D0000F7E704480068072801D10020F1E7002028
:101D1000EFE70000E00200404FF400407047000091
:101D20002DE9F04F89B004460E4617460120079072
:101D30004FF0000B05904FF002094448864203D94A
:101D4000022009B0BDE8F08F4148864201D201204F
:101D5000F7E7B4F57A6F01D20320F2E735460CE0DD
:101D60000BF1010BBBF1200F01D90520E9E74FEA88
:101D70004B0000FB06F50020059036488542EFD366
:101D8000B4F57A6F18D9A54216D309FB04F1284699
:101D900002F0C3F9804644F6206080450BD909FB68
:101DA00004F0B0FBF8F8B8F1000F04D0B8F1FF0F61
:101DB00001D8CDF81C8000BF0798012802D9002067
:101DC000069001E0012006900798B4FBF0F008901F
:101DD0000898B5FBF0F0B0FBF9FA09FB0AF0012115
:101DE00001EB400108984843B0EB450F01D20AF1DE
:101DF000010A02AB03AA04A9504606F095F9002097
:101E00000190504606F01CF9C0F31000F8600798E6
:101E100006F040F9C0F309007860584606F063F90F
:101E2000C0F30900B860DDE9020140EA011004993D
:101E300040EA8121019841EA4041069841EAC041C7
:101E4000059841EA0050386000207AE78055C820A4
:101E5000AB904100C02A6410014800687047000040
:101E60000800002000B51148006810B9FFF70EFD0A
:101E700000BD0E480068012802D1FFF7EDFFF7E72B
:101E80000A480068022802D1FFF7E2FEF0E707489F
:101E90000068032802D1FFF7B7FCE9E703480068B0
:101EA000072801D10020E3E70020E1E7F00200402D
:101EB00000B51548006810B9FFF7E8FC00BD1248EE
:101EC0000068012802D1FFF7C7FFF7E70E48006856
:101ED000022802D100F0E6F8F0E70B48006803287A
:101EE00002D1FFF7B5FEE9E707480068042802D1F0
:101EF000FFF78AFCE2E704480068072801D10020C8
:101F0000DCE70020DAE70000F802004000B51548E1
:101F1000006810B9FFF7BAFC00BD1248006801283C
:101F200002D1FFF799FFF7E70E480068022802D1B7
:101F300000F0B8F8F0E70B480068032802D1FFF77B
:101F400087FEE9E707480068042802D1FFF75CFC38
:101F5000E2E704480068072801D10020DCE7002000
:101F6000DAE70000A002004010B500240F48006826
:101F700000F0070030B1012806D0022808D003285D
:101F80000ED109E00A4C0DE0FFF7BEFC044609E063
:101F900000F08EF8044605E0FFF7BEFE044601E0BF
:101FA000002400BF00BF204610BD0000900200408A
:101FB000001BB7002DE9F0470446FFF7D5FF0746A1
:101FC000208800F40040F0B9D4E9000105F079FE62
:101FD0008146A168206805F064FE8046B7FBF9F7EA
:101FE000E168206805F050FE8246A7FB0A500646CD
:101FF0004246002328463146FEF702FB05460220F2
:10200000A5FB005100E03D462846BDE8F0870000F2
:1020100010B504462046FFF7CDFF0149086010BD0A
:102020000800002000B50E48006810B9FFF710FE48
:1020300000BD0B480068012802D1FFF70DFFF7E74C
:1020400007480068022802D100F02CF8F0E70448A5
:102050000068072801D10020EAE70020E8E7000037
:10206000A802004000B50E48006810B9FFF7F0FD67
:1020700000BD0B480068012802D1FFF7EDFEF7E72D
:1020800007480068022802D100F00CF8F0E7044885
:102090000068072801D10020EAE70020E8E70000F7
:1020A000AC02004001480068704700000C000020AE
:1020B0000C48006800F4801008B1002070470A48FE
:1020C000006800F01F00401C410007480068C0F392
:1020D0004410064B1A5C4CF250305043B0FBF1F008
:1020E000ECE700001006004008050040A881000051
:1020F00010B51346074A1BB14FF0005442F8204078
:1021000021B94FF0804442F8204002E04C1E42F8D2
:10211000204010BD00030040044A126822F47041C0
:1021200041EA0032014B1A60704700000004004091
:1021300010B504461D48844203D80020FFF7ECFF89
:1021400033E01B48844203D80120FFF7E5FF2CE071
:102150001848844203D80220FFF7DEFF25E0164826
:10216000844203D80320FFF7D7FF1EE013488442C0
:1021700003D80420FFF7D0FF17E01148844203D8AA
:102180000520FFF7C9FF10E00E48844203D806205F
:10219000FFF7C2FF09E00C48844203D80720FFF78D
:1021A000BBFF02E00820FFF7B7FF10BD001BB70020
:1021B00000366E01005125020087930300D8B80550
:1021C000000E270700449508007A030A2DE9F04124
:1021D00004460D46207A00F0010008B1666802E06E
:1021E000FFF7C0FA064600232A4630462168FFF76B
:1021F00097FD0746206828613846BDE8F081000059
:10220000F8B504460D4633480068002010B101209F
:10221000FFF74EFA03F0B4FB4FF4817003F0A6FB16
:1022200065612D49206808602B49083160680860A5
:10223000606840F480600860091DA0680860A068BC
:1022400040F080000860091DE0680860E06840F424
:10225000003008604FF40000091D0860207D00F088
:10226000030028B31D4F081F006820F40036081F24
:1022700007604FF4817003F06FFB47F4003016499C
:10228000103108600020009002E00098401C00908F
:102290000098AC28F9D310481030066046F400309E
:1022A0000D49103108604FF4817003F055FB00BFF9
:1022B000207D00F0020040B100BF00BF0648001DB5
:1022C000006800F001000028F7D02046FFF792FADE
:1022D0000020F8BD98020040A0050040D25D040037
:1022E0002DE9F04104460D46207A00F0010008B1C6
:1022F000666802E0FFF738FE064600232A463046AD
:102300002168FFF70DFD0746206828613846BDE8C3
:10231000F0810000F8B504460D46354800680020FD
:1023200010B10120FFF7C4F903F02AFB162003F0D7
:102330001DFB2069FFF7FCFE65612E4920680860DF
:102340002C49083160680860606840F4806008606B
:10235000091DA0680860A06840F080000860091DA1
:10236000E0680860E06840F400300860207D00F01C
:10237000030018B3204E0846006820F400370846D2
:102380000660162003F0E8FA46F4003019491031CF
:1023900008600020009002E00098401C0090009827
:1023A000AC28F9D313481030076047F400301149C6
:1023B00010310860162003F0CFFA00BF207D00F036
:1023C000020040B100BF00BF0A48001D006800F0D5
:1023D00001000028F7D02046FFF71AFE207D00F00C
:1023E000040018B10548006803F0DAFA0020F8BDCF
:1023F0009002004080050040D25D040008000020EB
:1024000010B5002000F018F810BD10B5012000F044
:1024100013F810BD10B5022000F00EF810BD10B575
:10242000032000F009F810BD10B5042000F004F8F6
:1024300010BD0160704700002DE9F04104461A49C3
:1024400051F8240001680E46174951F8240031461E
:10245000FFF7EFFF1548005D58B9154850F8240004
:102460000068F0B1124850F82400016830468847EF
:1024700017E0002513E0012000FA05F706EA07003F
:1024800060B10B4850F8240050F8250030B10848DE
:1024900050F8240050F82510304688476D1C072D51
:1024A000E9D9BDE8F0810000F881000014000020A7
:1024B000540200202DE9F04100274BE0274850F856
:1024C000274004B945E0207B4511207B00F01F0622
:1024D000A0682030C5EBC50101EB051100EB8100C0
:1024E000806B0121B140084090B10120B040A1684B
:1024F0002031C5EBC50202EB051201EB82018863B6
:10250000206828B1002301222046D4E900C1E04719
:10251000A0682030C5EBC50101EB051100EB81007F
:10252000006C0121B140084090B10121B140A06888
:102530002030C5EBC50202EB051200EB82000164FE
:10254000206828B101231A462046D4E900C1E0479B
:1025500000BF7F1C1E2FB1DBBDE8F081000400200E
:1025600070B5044604B104E0F12240A145A004F096
:1025700071FA257BA6681E2D00D205E040F21712E5
:1025800044A14AA004F066FAC5F34210C0EBC001B2
:1025900001EB001106F1200000EB8100806805F0DE
:1025A0001F02012191400843C5F34211C1EBC10252
:1025B00002EB011206F1200101EB8201886000BFED
:1025C00000BFA0682030217B4911C1EBC10202EBA2
:1025D000011100EB81008169207B00F01F020120C6
:1025E000904001400029ECD1A0682030217B4911A6
:1025F000C1EBC10202EB011100EB8100806D217B78
:1026000001F01F02012191400843A1682031227B83
:102610005211C2EBC20303EB021201EB8201886587
:10262000257BA6681E2D00D205E040F20B1219A1F1
:102630001EA004F00FFAC5F34210C0EBC00101EB7D
:10264000001106F1200050F8210005F01F020121C1
:1026500091400843C5F34211C1EBC10202EB0112E4
:1026600006F1200141F8220000BF70BD5352435CC7
:10267000447269766572735C66736C5F646D612E1B
:10268000630000004E554C4C20213D2068616E6473
:102690006C6500005352435C447269766572735CEA
:1026A00066736C5F646D612E680000006368616E24
:1026B0006E656C203C2046534C5F46454154555254
:1026C000455F444D415F4E554D4245525F4F465F19
:1026D0004348414E4E454C53000000002DE9FC415B
:1026E00007460C4615461E46DDF820800020019066
:1026F00027B107F00F0008B904B104E0DF2223A1DD
:10270000284804F0A7F935B1A079B5FBF0F100FB3A
:10271000115000B904E0E0221CA1234804F09AF90A
:1027200036B1A079B6FBF0F100FB116000B904E00E
:10273000E12216A11D4804F08DF9B8F1000F02D076
:1027400008F00F0000B904E0E22210A118A004F084
:1027500081F901A9204600F05DFACDF80080207AC9
:10276000A17910FB01F16089401E01FB0063E07953
:10277000A17910FB01F16089401E01FB005238462F
:10278000019900F03FFABDE8FC8100005352435C20
:10279000447269766572735C66736C5F646D612EFA
:1027A00063000000E092000070930000B49300000A
:1027B000284E554C4C203D3D206E65787444657321
:1027C0006329207C7C202830203D3D202875696EBF
:1027D0007433325F74296E657874446573632025A1
:1027E00020313629000000002DE9F04104460E4654
:1027F000154614B11E2D00D204E0FD2213A1194884
:1028000004F028F9304600F07DF8074600202060EB
:102810006060A060E060A6602573134840F8254022
:102820001249C85710F1800F00D10CE000BF00F032
:102830001F02012191404209920002F1E022C2F8F8
:10284000001100BF00BFBDE8F08100005352435C9F
:10285000447269766572735C66736C5F646D612E39
:10286000630000009C9200000004002038820000F9
:1028700070B505460C461E2C00D205E040F20B1246
:102880000EA114A004F0E6F8C4F34210C0EBC0019E
:1028900001EB001105F1200050F8210004F01F02A7
:1028A000012191400843C4F34211C1EBC10202EB84
:1028B000011205F1200141F8220070BD2E5C535237
:1028C000435C447269766572735C66736C5F646DB9
:1028D000612E68006368616E6E656C203C20465313
:1028E0004C5F464541545552455F444D415F4E55FE
:1028F0004D4245525F4F465F4348414E4E454C5313
:102900000000000070B50546002406E00C4850F8B1
:102910002400A84200D102E0641C012CF6DB00BFB9
:10292000012C00DA04E0562206A10CA004F092F873
:10293000012C01DA204670BD4FF0FF30FBE70000AC
:10294000348200005352435C447269766572735C52
:1029500066736C5F646D612E63000000696E737452
:10296000616E6365203C2046534C5F46454154559B
:1029700052455F534F435F444D415F434F554E5463
:102980000000000010B514210A0A032A05D2012311
:102990008B40094C44F8223005E001239C07E36496
:1029A0008B40064C636100BF05498160016841F0BE
:1029B0000101016010BD0000200200400000044041
:1029C000000600202DE9F05F04460E4617461D461E
:1029D000DDE90BBADDF8289014B10EB107B105E0BE
:1029E00040F21B1231A137A004F034F8012D03D0BE
:1029F000022D01D0042D00D105E04FF48E722BA1E1
:102A00003FA004F027F8B9FBF5F8B8F5806F05D8BA
:102A1000B9FBF5F005FB109000B905E04FF490729A
:102A200022A1464804F016F81C212046FDF732FE8C
:102A3000BBF1000F09D0BBF1010F0CD0BBF1020FAD
:102A400010D0BBF1030F1AD113E00121E1742175FD
:102A50000020207615E00021E1740121217501207C
:102A600020760EE00121E1740021217501202076FD
:102A700007E00021E17421750120207601E0BDE826
:102A8000F09F00BF67602660C4F808A0A4F8168015
:102A9000A57401212174BAF1000F00D000E00021DB
:102AA00061730120207300BFE9E700005352435CCB
:102AB000447269766572735C66736C5F646D612ED7
:102AC00063000000284E554C4C20213D20636F6E62
:102AD0006669672920262620284E554C4C20213D2A
:102AE00020737263416464722920262620284E5583
:102AF0004C4C20213D2064737441646472290000B1
:102B000028627974655769647468203D3D203129D5
:102B1000207C7C2028627974655769647468203D44
:102B20003D203229207C7C202862797465576964B5
:102B30007468203D3D2034290000000024930000EB
:102B400070B504460E46154604B105E04FF4867292
:102B500003A109A003F07EFF2660656070BD000040
:102B60005352435C447269766572735C66736C5F42
:102B7000646D612E6300000068616E646C652021E5
:102B80003D204E554C4C000070B505460C4616468F
:102B90001E2C00D205E040F24F1208A10DA003F058
:102BA00059FF05F5806000EB0410006866F31240E1
:102BB00005F5806101EB0411086070BD2E5C535275
:102BC000435C447269766572735C66736C5F646DB6
:102BD000612E68006368616E6E656C203C20465310
:102BE0004C5F464541545552455F444D415F4E55FB
:102BF0004D4245525F4F465F4348414E4E454C5310
:102C00000000000010B5029C016042608360C46057
:102C100010BD00002DE9F04104460F4604B104E068
:102C2000AE2251A156A003F015FFE07940B1E07942
:102C3000012805D0E079022802D0E079042800D1EB
:102C400004E0B02248A1524803F004FF207A40B1CA
:102C5000207A012805D0207A022802D0207A042880
:102C600000D104E0B22240A14A4803F0F3FEA0796B
:102C7000012805D0A079022802D0A079042800D12B
:102C800004E0B42238A1444803F0E4FE6089B0F5C2
:102C9000806F00DC04E0B62233A140A003F0DAFE2E
:102CA0000025207808B1012000E0002000F001009C
:102CB0000543607808B1012000E00020022101EA0C
:102CC00040000543A07808B1012000E00020042165
:102CD00001EA80000543E07808B1012000E000200F
:102CE000082101EAC0000543207908B1012000E075
:102CF0000020102101EA00100543607908B101208D
:102D000000E00020202101EA40100543A0790428BA
:102D100001D1022001E0A079401E06464FF4407028
:102D200000EA06200543E079042801D1032000E0F1
:102D3000E07906464FF4405000EA06300543207A19
:102D4000042801D1032000E0207A06464FF44040D9
:102D500000EA863005436089401E1D4901EA0040B3
:102D600005433D60BDE8F0815352435C447269768F
:102D70006572735C66736C5F646D612E6300000046
:102D80007866657263666720213D204E554C4C0085
:102D900078910000E091000048920000786665722A
:102DA0006366672D3E7472616E73666572436F75FC
:102DB0006E74203C3D20444D415F4D41585F54525C
:102DC000414E534645525F434F554E54000000005C
:102DD0000000FF0310B5044604B105E040F267129D
:102DE00027A12DA003F036FEA0682030217B4911D9
:102DF000C1EBC10202EB011100EB8100806A217B73
:102E000001F01F02012191400843A1682031227B7B
:102E10005211C2EBC20303EB021201EB8201886282
:102E2000A06800F58060217B00EB0110006800F0D5
:102E3000020060B1207B1C4901EB0010006820F00B
:102E40000400217B184A02EB011108600BE0207B93
:102E5000154901EB0010006840F00400217B124A84
:102E600002EB01110860207B0F4901EB00100168A3
:102E7000A06800F58060227B00EB0210816010BD2D
:102E80005352435C447269766572735C66736C5F1F
:102E9000646D612E630000004E554C4C20213D2096
:102EA00068616E646C65000000060020F8B5044699
:102EB0000D460CB105B105E040F24B1235A13BA027
:102EC00003F0C8FD267BA7681E2E00D205E0E7228E
:102ED000404901F1180003F0BDFDC6F34210C0EBFC
:102EE000C00101EB001107F1200000EB8100006937
:102EF00006F01F0201219140084008B1012000E0C6
:102F0000002010B141F28830F8BD287EC8B1267B80
:102F1000A7681E2E00D206E040F223122D4901F1CF
:102F2000180003F097FD07F5806000EB06100068BD
:102F300040F0010107F5806000EB0610016000BF62
:102F400019E0267BA7681E2E00D206E04FF4987287
:102F5000204901F1180003F07DFD07F5806000EBCA
:102F60000610006820F0010107F5806000EB0610F4
:102F7000016000BF00BFA8680090217B164E06EBE1
:102F8000011005F10C01D5E90023FFF7A7FB002094
:102F9000BAE700005352435C447269766572735C11
:102FA00066736C5F646D612E63000000284E554CA3
:102FB0004C20213D2068616E646C65292026262006
:102FC000284E554C4C20213D20636F6E6669672961
:102FD00000000000942600000006002010B5034801
:102FE000006810B101490868804710BD1C0000202E
:102FF00070B51C7800EB01256C6000EB01255C6866
:103000002C6000EB01259C682C611C7B00EB0125EA
:10301000AC605C7B00EB0125EC6002F001041D7DDF
:10302000022606EA45052C4300EB0125C5F88C4035
:103030009C7B04F00304F0261D6906EA05152C4369
:103040005D7D4FF4807606EA05252C4300EB0125D3
:10305000C5F8904070BDC0F80C1F7047C0F8001F45
:10306000704770B5049C00EB0125D5F8805005F041
:103070000C054FF4F81606EA0246354303F0010644
:103080003543022606EA4406354300EB0126D6F80E
:103090008060354300EB0126C6F8805070BD00000B
:1030A00070B50546002406E0094850F82400A842FF
:1030B00000D102E0641C002CF6D000BF04B904E08B
:1030C0004D2204A109A003F0C5FC204670BD0000FC
:1030D0003C8200005352435C447269766572735CB3
:1030E00066736C5F646D69632E630000696E737450
:1030F000616E6365203C2046534C5F464541545504
:1031000052455F534F435F444D49435F434F554ED4
:103110005400000070B5044604B104E054221BA121
:1031200020A003F097FC2046FFF7BAFF1F4931F8B3
:103130001050280A032805D20121A9401C4A42F850
:10314000201005E001218A07D164A940194A516184
:1031500000BF194802F0A8FCD4F8800020F0080055
:10316000C4F88000D4F8800120F00801C4F8801170
:10317000D4F8800020F00400C4F88000D4F8800166
:1031800020F00401C4F8801170BD00005352435C6C
:10319000447269766572735C66736C5F646D6963B3
:1031A0002E63000062617365000000004082000031
:1031B00020020040000004401300010001290BD14F
:1031C000D0F8802042F00402C0F88020D0F880219E
:1031D00042F00403C0F8803102290BD1D0F88020DE
:1031E00042F00802C0F88020D0F8802142F00803A5
:1031F000C0F88031704700002DE9F04706460C46C4
:1032000090469946089F002506B104E060221EA161
:1032100024A003F01FFC16B90420BDE8F08704B118
:1032200004E0662218A123A003F014FC0CB90420CA
:10323000F3E73046FFF734FF0546002D00DB04E0DE
:103240006D2211A120A003F005FC002D01DA04205D
:10325000E3E718212046FDF71DFA1F4840F83560C6
:1032600000EBC5004460C4F80880C4F80C906760A7
:103270000020207537B1184800EBC50217493846C1
:10328000FFF75EFC0020C8E75352435C4472697646
:103290006572735C66736C5F646D69635F646D61B6
:1032A0002E63000021284E554C4C203D3D2062618C
:1032B0007365290021284E554C4C203D3D20686106
:1032C0006E646C65290000002128696E7374616E5C
:1032D0006365203C2030290024000020E1330000F9
:1032E0002DE9F0418AB007460C461546984604B1D0
:1032F00004E08D2223A12AA003F0ACFB606800B19A
:1033000004E08E221FA128A003F0A4FB05B104E075
:103310008F221CA129A003F09DFB286800B104E0C6
:10332000902218A127A003F095FB686800B104E083
:10333000912214A126A003F08DFB207D012802D14B
:1033400041F2A8661AE0012020756868206100211A
:1033500001226868CDE90121009007EB082000F107
:103360008801022303A82A68FFF72CFB03A96068E1
:10337000FFF79CFD6068FFF72DFD002630460AB080
:10338000BDE8F0815352435C447269766572735CA8
:1033900066736C5F646D69635F646D612E630000CA
:1033A00068616E646C65000068616E646C652D3EDA
:1033B0007278446D6148616E646C65007866657210
:1033C00000000000786665722D3E64617461000043
:1033D000786665722D3E6461746153697A65000098
:1033E0002DE9F04706460D469046994606B104E0A1
:1033F0004A220EA114A003F02DFB05B104E04B22DC
:103400000AA113A003F026FB2C4600206168087572
:103410006068806838B162681146D3682068976830
:1034200041F2A962B847BDE8F08700005352435CFF
:10343000447269766572735C66736C5F646D696310
:103440005F646D612E63000068616E646C650000EE
:10345000706172616D000000C0F8101F70470000BD
:103460002DE9F04104460D4616461F4610480068F7
:103470001049884206D110480D4908600D480F498F
:10348000086005E00B480A4908600B480B490860D2
:1034900001200B4908700123054A0A490A48FFF731
:1034A0001FFF0A480068401C08490860BDE8F08119
:1034B0002C02002020090020201100208400002080
:1034C000200200207C410020000009403C02002036
:1034D0002DE9F04F07468C46914600203946834639
:1034E00001F801BBB9F1000F1ED0DCF8004034B97F
:1034F0004FF0300B81F800B0401CBDE8F08F10E0B9
:1035000094FBF3F808FB1345002D05DA2A466FEA11
:10351000020B0BF1310500E03035444601F8015B48
:10352000401C002CECD125E0DCF800602EB94FF0F7
:10353000300B81F800B0401CDFE719E0B6FBF3FA6E
:103540000AFB13620A2A01D230320DE0A2F10A0B03
:10355000DDF824E0BEF1000F02D04FF0410E01E093
:103560004FF0610E0BEB0E02564601F8012B401C8A
:10357000002EE3D100BFC0E7FEB505460E46144657
:103580001F461048007808B10120FEBD0D480470A8
:10359000052C11D14560684602F038FE00960949B5
:1035A0003A464868694602F05DFE0748054988606A
:1035B00006490448C16001E00420E6E700BF00209E
:1035C000E3E7000044020020856500009D630000E1
:1035D0000FB438B50948007820B94FF0FF3038BC37
:1035E0005DF814FB05A800900548009A049900F0C6
:1035F00009F80446002000902046F0E7440200202D
:10360000693800002DE9F74F92B006468B464FF01F
:103610000008C14600200790039001905D4606E136
:10362000252C05D02046B0470798401C0790FDE0A8
:103630004FF0010A00200690089012E0681C054631
:103640000478302C0ADB392C08DCA4F13000069910
:1036500001EB810100EB4100069002E06D1E0120AC
:10366000089008980028E9D006200590681C0546B7
:1036700000782E281AD100200590089012E0681CCE
:1036800005460478302C0ADB392C08DCA4F1300024
:10369000059901EB810100EB4100059002E06D1EF0
:1036A0000120089008980028E9D000E06D1E681CF1
:1036B00005460478642C11D0692C0FD0662C0DD0EF
:1036C000462C0BD0782C09D0582C07D06F2C05D065
:1036D000622C03D0702C01D0752C77D1642C01D0D2
:1036E000692C11D11498006802901498001D149050
:1036F0000A23012202A909A8CDF800A0FFF7E8FEDD
:10370000814609A800EB0908582C01D0782C15D166
:10371000782C01D14FF0000A149800680190149899
:10372000001D14901023002201A909A8CDF800A0C3
:10373000FFF7CEFE814609A800EB09086F2C05D0E3
:10374000622C03D0702C01D0752C28D114980068FD
:1037500001901498001D1490622C09D06F2C04D095
:10376000702C08D0752C0CD108E00820039009E0DB
:103770000220039006E01020039003E00A2003904B
:1037800000E000BF00BFCDF800A0002201A909A8F9
:10379000039BFFF79DFE814609A800EB090807ABD4
:1037A000009649462020069A00F049F8B8F1000F2B
:1037B0003BD005E018F80109B0470798401C079076
:1037C00098F800000028F5D12FE0FFE7632C0BD11B
:1037D000149810F8041B1490C8B204900498B047D1
:1037E0000798401C079020E0732C19D1149880C8CA
:1037F0001490D7B13846FCF758FF814607AB0096C6
:1038000049462020069A00F01AF805E017F8010B47
:10381000B0470798401C079038780028F6D104E09C
:103820002046B0470798401C079000BF6D1C2878C1
:10383000041E7FF4F5AE079815B0BDE8F08F2DE9B2
:10384000F04780460D4616461C46DDF820902F4670
:1038500005E04046C8472068401C20607F1CB742F6
:10386000F7DBBDE8F087000001B50748007810B924
:103870004FF0FF3008BD0449486801228B68694653
:1038800098470120F6E70000440200202DE9F041AE
:1038900007460E4615460C20FEF768F80949B0FBAE
:1038A000F1F000FB06F404F2E7304FF47A71B0FB5C
:1038B000F1F4AC4201D3641B00E000242046BDE8D3
:1038C000F081000040420F002DE9FC5F04460E46E7
:1038D00090469946B8F1000F00D004E0DD228FA198
:1038E00094A003F0B7F806B104E0DE228BA193A008
:1038F00003F0B0F8B9F1040F00D804E0DF2287A18B
:1039000090A003F0A7F84546002724E06878182126
:1039100001EAC000297A4FF4BF4202EAC11108430C
:103920002A7804F5807101EB421108602879C0F310
:1039300002100190A87800F003014FF44072019842
:1039400002EA002008432A7804F5807101EB421155
:1039500048600A357F1C4F4501D2002DD6D1307802
:1039600000F00300A06201222046B168FFF78EFF3D
:1039700000F00F00206301222046F168FFF786FF68
:1039800000F00F006063012220463169FFF77EFFDF
:1039900000F00F00A063012220467169FFF776FF57
:1039A00000F00F00E06300222046B169FFF76EFFD0
:1039B00000F00F00206401222046F169FFF766FF46
:1039C00000F00F00606401222046316AFFF75EFFBD
:1039D00000F01F00A06401222046716AFFF756FF25
:1039E00000F01F00E06401222046B16AFFF74EFF9D
:1039F00000F01F00206501222046F16AFFF746FF14
:103A000000F00F00606596F83000002803DD96F89E
:103A10003000401E00E0002000F00F00A0650027ED
:103A200000E07F1CB7F5FA6FFBD340F283102062F1
:103A3000002700E07F1CB7F5FA6FFBD340F20310BC
:103A4000206202206062002700E07F1CB7F57A7FC9
:103A5000FBD3002220467168FFF718FF000960625F
:103A6000832020624546002715E0287A00F0F8F808
:103A7000824628783D4951F82010A88820F4C04299
:103A800002FA0AF241EA020BDBF80000009000980B
:103A900000900A357F1C4F4501D2002DE5D198F8E2
:103AA000010000B3832020624546002717E0287AF2
:103AB00000F0D6F8824628782C4951F82000E98891
:103AC00021F4C04141F4804101FA0AF140EA010BBE
:103AD000DBF800000090009800900A357F1C4F45ED
:103AE00001D2002DE3D100202062454600270FE0DF
:103AF000297804F5807000EB4110006840F4002143
:103B00002A7804F5807000EB421001600A357F1CB2
:103B10004F4501D2002DEBD1BDE8FC9F5352435CD1
:103B2000447269766572735C66736C5F656D632E53
:103B300063000000636F6E666967000074696D69F9
:103B40006E670000746F74616C4368697073203C29
:103B50003D20454D435F44594E414D49435F4D45DE
:103B60004D4445565F4E554D000000002C0000208E
:103B700070B50546002406E0094850F82400A84224
:103B800000D102E0641C002CF6D000BF04B904E0B0
:103B9000702204A109A002F05DFF204670BD000064
:103BA000488200005352435C447269766572735CCC
:103BB00066736C5F656D632E63000000696E7374DD
:103BC000616E6365203C2046534C5F464541545529
:103BD00052455F534F435F454D435F434F554E54EE
:103BE0000000000070B506460C463046FFF7C0FFE7
:103BF000164931F81050280A032805D20121A9409E
:103C0000134A42F8201005E001218A07D164A94037
:103C1000104A516100BF1048006840F080010E4812
:103C20000160006820F080010B480160A0780B491A
:103C300008606078082101EAC00008498C310860FA
:103C40002078B0600120306070BD00004482000028
:103C5000200200400000044008010040B80300407A
:103C60000146002001F00302102A01D1082010E0D3
:103C70000AB9092000E00820C1F3C103012B02D1D9
:103C8000431CD8B205E0C1F3C103022B01D1831C50
:103C9000D8B201F0800313B1831CD8B201E0431CF9
:103CA000D8B201F020033BB901F01C0313B9431C47
:103CB000D8B201E0831CD8B27047000010B50348A9
:103CC00001680348034A1268904710BD3C00002079
:103CD000002009404000002010B50848006800B1ED
:103CE00004E0A32206A10DA002F0B4FE114B196856
:103CF000114B1868014B1A68904710BDE00700206F
:103D00005352435C447269766572735C66736C5F90
:103D1000666C6578636F6D6D2E630000735F666C13
:103D20006578636F6D6D49727148616E646C657220
:103D30005B305D00080800205882000010B508487C
:103D4000406800B104E0AA2206A10DA002F082FEA4
:103D5000114B5968114B5868014B5A68904710BD78
:103D6000E00700205352435C447269766572735CCD
:103D700066736C5F666C6578636F6D6D2E630000B3
:103D8000735F666C6578636F6D6D49727148616EC3
:103D9000646C65725B315D00080800205882000089
:103DA00010B50848806800B104E0B22206A10DA059
:103DB00002F050FE114B9968114B9868014B9A68BC
:103DC000904710BDE00700205352435C447269766F
:103DD0006572735C66736C5F666C6578636F6D6D3E
:103DE0002E630000735F666C6578636F6D6D49725A
:103DF0007148616E646C65725B325D00080800207A
:103E00005882000010B50848C06800B104E0BA222A
:103E100006A10DA002F01EFE114BD968114BD86807
:103E2000014BDA68904710BDE00700205352435C15
:103E3000447269766572735C66736C5F666C6578F4
:103E4000636F6D6D2E630000735F666C6578636FE2
:103E50006D6D49727148616E646C65725B335D00B3
:103E6000080800205882000010B50848006900B119
:103E700004E0C22206A10DA002F0ECFD114B19696D
:103E8000114B1869014B1A69904710BDE0070020DB
:103E90005352435C447269766572735C66736C5FFF
:103EA000666C6578636F6D6D2E630000735F666C82
:103EB0006578636F6D6D49727148616E646C65728F
:103EC0005B345D00080800205882000010B50848E7
:103ED000406900B104E0CB2206A10DA002F0BAFDBA
:103EE000114B5969114B5869014B5A69904710BDE4
:103EF000E00700205352435C447269766572735C3C
:103F000066736C5F666C6578636F6D6D2E63000021
:103F1000735F666C6578636F6D6D49727148616E31
:103F2000646C65725B355D000808002058820000F3
:103F300010B50848006A00B104E0E52206A10DA012
:103F400002F088FD114B196A114B186A014B1A6A6D
:103F5000904710BDE00700205352435C44726976DD
:103F60006572735C66736C5F666C6578636F6D6DAC
:103F70002E630000735F666C6578636F6D6D4972C8
:103F80007148616E646C65725B385D0008080020E2
:103F90005882000010B50848406A00B104E0ED22E4
:103FA00006A10DA002F056FD114B596A114B586A3B
:103FB000014B5A6A904710BDE00700205352435C02
:103FC000447269766572735C66736C5F666C657863
:103FD000636F6D6D2E630000735F666C6578636F51
:103FE0006D6D49727148616E646C65725B395D001C
:103FF000080800205882000070B50546002407E03C
:10400000074850F82400A84201D1204670BD641C26
:104010000A2CF5DB612203A109A002F01BFD0000C0
:10402000588200005352435C447269766572735C37
:1040300066736C5F666C6578636F6D6D2E630000F0
:1040400066616C736500000070B505460E46284633
:10405000FFF7D2FF0446002C01DA042070BD0C49A2
:1040600031F81400010A032905D201228240094BCC
:1040700043F8212005E001229307DA648240064BD1
:104080005A6100BF00223146284600F024F8E5E7D7
:1040900080820000200200400000044010B502466B
:1040A00009B9012010BD01290CDB04290ADCD2F872
:1040B000F80FCB1C01249C40204008B10120F1E7FF
:1040C0000020EFE7052904D1D2F8F80FC0F3C010A3
:1040D000E8E70020E6E770B504460D461646294697
:1040E0002046FFF7DBFF08B9032070BDD4F8F80FB6
:1040F00000F0080038B1D4F8F80F00F00700A8422B
:1041000001D00120F1E726B145F00800C4F8F80F0E
:1041100001E0C4F8F85F0020E7E705E00A46B0FBDD
:10412000F1F301FB130110460029F7D1704700009D
:1041300010B507480068006840F0010004490968AC
:1041400008600448006810B102490868804710BD43
:10415000948200004400002010B5074840680068C1
:1041600040F001000449496808600448406810B103
:1041700002494868804710BD948200004400002036
:1041800010B50348006810B101490868804710BDA8
:104190002000002001F05002C0F80428704741B10F
:1041A000D0F8002802F01F0242F00102C0F80028F7
:1041B00005E0D0F8002802F01E02C0F80028704781
:1041C0000121017002494160002101727047000025
:1041D000A086010070B505460C4616460321284608
:1041E000FFF732FF21782846FFF7D9FF32462846ED
:1041F000616800F077F870BD2DE9F05F04460E4667
:1042000017469A460025B14606B105E04FF48B7279
:1042100027A12DA002F01EFC4FF0000837E0204639
:1042200000F0B4F9054605F0500000B131E0C5F3E7
:10423000420BBBF1010F06D0BBF1030F19D0BBF14C
:10424000040F1AD116E0D4F8280809F8010B781EDB
:10425000071E03D00120C4F8200809E00AF004007A
:1042600030B90420C4F82008204600F08FF9054634
:1042700006E000BF40F62A2802E040F6312800BFE1
:1042800000BFB8F1000F02D04046BDE8F09F002FFC
:10429000C5D100BF05F0100010B140F62D20F4E7A5
:1042A00005F0400010B14FF42360EEE70020ECE78A
:1042B0005352435C447269766572735C66736C5FDB
:1042C0006932632E630000007278427566660000F2
:1042D00070B504460D46164632462946204600F083
:1042E00045F870BD2DE9F04703460C4615464FF0E2
:1042F000000C092021E004FB00F84FEA4808B5FB58
:10430000F8F1B1F5803F02D94FF4803800E08846DB
:10431000414604FB00F84FEA480808FB1152624589
:1043200002D3BCF1000F02D10F460646944612B1EB
:10433000B1F5803F00D302E0401E0228DBD200BF6F
:10434000A7F101081FFA88F8C3F81488A6F102083B
:1043500008F00708A6F102094FF0700A0AEA0919E5
:1043600048EA0908C3F82488BDE8F08770B5044618
:104370000D461646204600F009F9304665F35F0009
:10438000C4F828080220C4F82008002070BD10B529
:104390000446204600F0FAF80420C4F82008002063
:1043A00010BD00002DE9F84380460C46002504B1FD
:1043B00005E040F25D1232A137A002F04BFB2078FD
:1043C00000F00100002837D1E06820B321790022F5
:1043D0004046FFF7CBFF0546002D2DD1A768E068CA
:1043E000461E04E0F8B20DF806003F0A761E002EC5
:1043F000F8DA042369464046E26800F051F80546C1
:10440000D5B9A079012817D1A27921794046FFF7C3
:104410005FFF054610E0207800F0020030B1A2797D
:1044200021794046FFF754FF054605E0A27921793E
:104430004046FFF79BFF0546BDB9A07948B96069C2
:1044400038B140462368D4E9041200F029F8054643
:104450000BE0A079012808D1606930B1404623689B
:10446000D4E90412FFF7C8FE054640F62A2085422B
:1044700002D14046FFF78BFF2846BDE8F8830000D5
:104480005352435C447269766572735C66736C5F09
:104490006932632E630000007866657200000000D8
:1044A0002DE9F05F05460E4617469A46B14606B11D
:1044B00004E0C8222DA133A002F0CCFA4FF000088E
:1044C00032E0284600F062F8044604F0100018B10B
:1044D00040F62D20BDE8F09F04F0400010B14FF4ED
:1044E0002360F7E7C4F3420BBBF1020F06D0BBF128
:1044F000030F0CD0BBF1040F0DD109E019F8010B2B
:10450000C5F828087F1E0120C5F8200806E000BF76
:1045100040F62A2802E040F6312800BF00BFB8F17B
:10452000000F01D04046D5E7002FCAD1284600F041
:104530002DF8044604F0500048B90AF0040030B9E0
:104540000420C5F82008284600F020F8044604F0AE
:10455000100010B140F62D20BCE704F0400010B16F
:104560004FF42360B6E70020B4E700005352435CE9
:10457000447269766572735C66736C5F6932632E30
:1045800063000000747842756666000070B50546E9
:1045900000BF00BFD5F8044800BF04F001000028A8
:1045A000F7D050212846FFF7F5FD204670BD0000EA
:1045B0002DE9F74F84B081460D46484600F0D6FA03
:1045C00082460AEB8A0000EBCA00694901EB8004CD
:1045D000607C022804D340F68E2007B0BDE8F08F3F
:1045E000E17C04F1140000EBC106A07C00EB4A0062
:1045F000604901EB0018A07C401C00F00100A07491
:10460000A07C00EB4A0001EB001B706800283FD142
:104610008DF8040001208DF8050000208DF80600BB
:104620008DF8070001208DF8080000208DF80900A2
:1046300004208DF80A0000208DF80B008DF80C0086
:104640000920ADF80E00CDF800B02868012802D18D
:1046500009F5626000E0484803462868012801D156
:10466000464801E009F56360024601A94046FEF7AD
:1046700035F8D8F8000040F00100C8F80000E868FC
:10468000017B01208840E968896888660020A4E7EA
:1046900071680698814201D9069F06E0706887B26A
:1046A000E07C401C00F00300E074E17B04F10800B2
:1046B00020F81170E07B401C0321B0FBF1F201FBFC
:1046C0001200E07300208DF8040001208DF8050031
:1046D00000208DF806008DF8070001208DF80800F5
:1046E00000208DF8090004208DF80A0028680128B0
:1046F00000D100E000208DF80B002868012801D0CF
:10470000012000E000208DF80C00B808ADF80E0084
:10471000CDF800B02868012802D109F5626000E0F8
:10472000306803462868012801D1306801E009F5A6
:104730006360024601A94046FDF7D0FFD8F80000AB
:1047400040F00100C8F80000E868017B01208840C3
:10475000E96889688866607C401C60747068C01B6A
:104760007060306800EB47003060002035E70000E3
:104770007008002030080020500000204C0000206D
:104780002DE9F04106460C4604B104E0942226A12E
:104790002BA002F05FF9002500272078302101EAE4
:1047A000001005436078C02101EA80100543A0781D
:1047B0004FF4807101EA00200543E078490001EAE6
:1047C000402005432079890001EAC0200543607933
:1047D000490001EA00300543A079490001EA403070
:1047E0000543A07AC91001EA80200543E07A401E03
:1047F0004FF4F81101EA00400543A089401EC0F3C0
:1048000008000743E089104901EA00400743C6F861
:10481000005CC6F8047C2089401EC0F30B00C6F87B
:104820001C0CBDE8F08100005352435C4472697671
:104830006572735C66736C5F6932732E630000008F
:10484000636F6E66696700000000FF012DE9F047A5
:1048500081460E4617469A4634466568D4F800806D
:104860000FB9BDE8F08795F8311005F1100000EBA5
:10487000C100406868B92946404600F085FA68687A
:1048800030B140F68D2229464046D5E901C3E047C4
:10489000E7E7207CD8B3A17B04F1080030F81100D1
:1048A00000B105E040F22E224CA1534802F0D2F8AC
:1048B00095F8312005F1100101EBC201081D4A688D
:1048C000A37B04F1080131F81310511A016095F827
:1048D000312005F1100101EBC2000268A37B04F155
:1048E000080131F8131002EB410101600021A27BA5
:1048F00004F1080020F81210A07B401C0321B0FB3B
:10490000F1F201FB1200A073002020743EE0FFE7EB
:10491000607CD8B3A17B04F1080030F8110000B12D
:1049200005E040F23F222DA1334802F093F895F8BC
:10493000312005F1100101EBC201081D4A68A37B7B
:1049400004F1080131F81310511A016095F8312073
:1049500005F1100101EBC2000268A37B04F108011C
:1049600031F8131002EB410101600021A27B04F138
:10497000080020F81210A07B401C0321B0FBF1F2CC
:1049800001FB1200A073607C401E607495F831102A
:1049900005F1100000EBC1004068B0B9002195F8A6
:1049A000312005F1100040F8321095F83100401C1C
:1049B00000F0030085F83100686830B140F68C22C1
:1049C00029464046D5E901C3E0474FF480522946C5
:1049D0004046FFF7EDFD00BF43E700005352435C44
:1049E000447269766572735C66736C5F6932735F7B
:1049F000646D612E63000000F89300002DE9FF4113
:104A000006460C46304600F0B1F8074607EB870033
:104A100000EBC700334901EB800504B104E08322B9
:104A200031A138A002F016F81CB9042004B0BDE88A
:104A3000F081029800F0030000B904E089222AA165
:104A400032A002F007F8029800F0030008B1042039
:104A5000ECE7039800B104E0902223A135A001F017
:104A6000F9FF039808B90420E0E7039800F0030079
:104A700000B904E097221CA134A001F0EBFF0398D9
:104A800000F0030008B10420D0E794F8301004F1DE
:104A9000100000EBC100406810B140F68E20C5E761
:104AA000029914F8302F05F1140040F832100399E0
:104AB000227800EBC2004160029914F8302904F119
:104AC000100040F83210039994F8302000EBC20037
:104AD000416094F83000401C00F0030084F830007E
:104AE0000020A3E7700800205352435C44726976AB
:104AF0006572735C66736C5F6932735F646D612E9F
:104B00006300000068616E646C65000028282875E9
:104B1000696E7433325F74297472616E7366657284
:104B20002E6461746129202520345529203D3D20C3
:104B3000305500007472616E736665722E64617424
:104B40006153697A6520213D2030550028747261D7
:104B50006E736665722E6461746153697A6520258F
:104B600020345529203D3D203055000070B50546C4
:104B7000002407E0074850F82400A84201D120464D
:104B800070BD641C022CF5D3BA2203A109A001F068
:104B900061FF0000AC8200005352435C44726976AE
:104BA0006572735C66736C5F6932735F646D612EEE
:104BB0006300000066616C736500000031B1D0F8DD
:104BC000002E42F40052C0F8002E0BE0D0F8002E68
:104BD00022F40052C0F8002ED0F8002E42F4003229
:104BE000C0F8002E704700002DE9F04F8BB08046D2
:104BF0000F461C2104A8FBF74DFD4046FFF7B6FF0A
:104C000083460BEB8B0000EBCB00514901EB800698
:104C1000F17C06F1140000EBC10568680321B0FBCC
:104C2000F1F084B2B4F5805F01D94FF4805404F000
:104C3000030018B104F00300201A84B204B105E0A7
:104C40004FF4B47243A14AA001F004FF1CB9042040
:104C50000BB0BDE8F08F002000EB4B00494901EBA1
:104C600000103968012901D1022100E00121CDE9BC
:104C7000004102903868012802D108F5626000E026
:104C8000286802463868012801D1286801E008F543
:104C900063600146042304A8FDF794FE01203074EC
:104CA000F17B06F1080020F81140F07B401C032145
:104CB000B0FBF1F201FB1200F0736868001B686042
:104CC000286800EB44002860686830B9002028603C
:104CD000F07C401C00F00300F0744FF0000910E07D
:104CE000B9F1010F06D1686884B2B4F5805F01D9CB
:104CF0004FF48054224639464046FFF759FC09F1EB
:104D00000109B9F1020FEBD33868012804D1012160
:104D1000404600F0A9F803E001214046FFF74EFFAE
:104D200004A9F868FEF7C2F88246BAF1000F01D074
:104D300050468DE7F868FEF74DF800BFD8F8000C34
:104D400040F00100C8F8000C00BF002080E7000020
:104D5000700800205352435C447269766572735C3C
:104D600066736C5F6932735F646D612E630000006F
:104D70007472616E736665724279746573203E2049
:104D800030550000300800202DE9F04106460C4661
:104D900004B104E0ED2225A12BA001F05BFEE06848
:104DA00000B104E0EE2221A129A001F053FE30461B
:104DB000FFF7DCFE074607EB870000EBC700294939
:104DC00001EB8005E068FDF7CBFB2068012804D1EA
:104DD0000021304600F048F803E000213046FFF79C
:104DE000EDFE00BFD6F8000C20F00100C6F8000C64
:104DF00000BF00202060202104F11000FBF74AFCD6
:104E0000002084F8310084F83000202105F11400DE
:104E1000FBF740FC0020A860A881A873E873287401
:104E20006874A874E874BDE8F08100005352435CD4
:104E3000447269766572735C66736C5F6932735F26
:104E4000646D612E6300000068616E646C65000033
:104E500068616E646C652D3E646D6148616E646C62
:104E6000650000007008002031B1D0F8002E42F437
:104E70008052C0F8002E0BE0D0F8002E22F48052B1
:104E8000C0F8002ED0F8002E42F48032C0F8002E78
:104E9000704703210170002141708170C170017160
:104EA0004171817101210181002181721021C17242
:104EB000202181810021C1810421017401214174DB
:104EC0000021817470472DE9F04106460D4600240B
:104ED000002704213046FFF7B7F829463046FFF790
:104EE0004FFC44F0010444F48034687C042101EA5E
:104EF00080000443A87C082101EAC000044347F075
:104F00000107287C4FF4706101EA00200743C6F8CE
:104F1000004EC6F8087EBDE8F08100002DE9F0479C
:104F200080460C4616469946DDF820A004B104E000
:104F3000C42218A11EA001F08DFD06B104E0C52217
:104F400014A11DA001F086FD4046FFF70FFE0746A5
:104F500007EB870000EBC7001A4901EB80053421FD
:104F60002046FBF797FB00202060E660C4F8049021
:104F7000C4F808A034212846FBF78CFBC5F8008054
:104F80006C60002028742A460F493046FDF7D8FD92
:104F9000BDE8F0875352435C447269766572735C76
:104FA00066736C5F6932735F646D612E630000002D
:104FB00068616E646C650000646D6148616E646C6C
:104FC00065000000700800204D4800007FB582B0E9
:104FD00006460C46049800900598019021463046FC
:104FE000DDE90023FFF70AFD054615B1284606B0A6
:104FF00070BD206830B90120206021463046FFF79F
:10500000F3FDF4E70020F2E710B500EBC11444F81B
:10501000223010BD002015E000211D4A22F810109A
:105020001C4A22F810109FED1C0A1C4901EB80015C
:1050300081ED000A9FED180A194901EB800181ED0D
:10504000000A401CB0F5806FE6DB00200DE0002177
:10505000144A22F81010144A22F81010134A22F8A9
:105060001010134A22F81010401CB0F5007FEEDB40
:105070000748104908600D480F49086000200F4993
:1050800008600F4908600F4908700F4908707047A1
:10509000200900202011002000000000902B00209B
:1050A000903B002020190020201D002020210020FE
:1050B0002025002084000020880000201802002005
:1050C0001C020020200200202102002000B593B025
:1050D0001C22304906A8FBF7C4FA4FF48770FCF78E
:1050E00099FA2D4800F0E0FC694606A8FDF76EF835
:1050F0000320059068460599FDF782F840F21230CA
:10510000FCF788FA4FF40670FCF784FA0020234974
:10511000086010A8FFF754F821481190214A10A9FF
:105120002148FFF757F80EA801F086FA05208DF800
:105130003A0003210EA8C1701B480D900EA90DA8BE
:1051400001F087FA10B119A0FEF742FA19221146B0
:105150000DA801F014FC1048001D00F0A5FC194832
:10516000FFF797FEFCF750FB45F6C051B0FBF1F09E
:105170000009C0F34F00134908811348FFF7A3FE4D
:105180000121142000F016FB142000F007FB13B0DF
:1051900000BD00005C9100000D000100AC03004068
:1051A000801A0600001BB70000800840574D3839B0
:1051B00030345F496E6974206661696C6564210DE5
:1051C0000A00000068410020007009401CB5274813
:1051D000FDF7D8FB0D212548FDF74AFB02220D21E2
:1051E0002248FDF7D1FC0D2220492148FDF7FCFAA9
:1051F00011211E48FDF73CFB032211211B48FDF73E
:10520000C3FC112219491B48FDF7EEFA1948002387
:10521000194A1A4900901A48FDF7EEFF194800880C
:10522000194948601948086019481A4908601A481D
:10523000008848600846194B0D4A194900901948E2
:10524000FFF76CFE13480068009012484068019018
:1052500013491448DDE90023FFF7B8FE01230A4A89
:1052600006490748FEF73CF81CBD00000020084036
:10527000A441002094410020613400007C410020C2
:1052800000000940800000202C020020200900209E
:10529000201D002034020020820000200D76000036
:1052A000B44100200070094000B587B002202E49AB
:1052B000086003204FF08041C1F8A803C9122A48B2
:1052C000C83801602948016028482030016040F258
:1052D000053127480160001D016040F21330FCF7E2
:1052E00099F9244800F0E0FB00208DF8040020200C
:1052F00002900220039000208DF810008DF811001C
:1053000001208DF8120005908DF8190000208DF80D
:1053100018001948FDF7FEFE00211748FDF79BFE17
:1053200001211548FEF798F802211348FDF746FFC2
:1053300001AB002201211048FDF75AFE012003466F
:105340000F22014600900C48FDF78BFE02210A480F
:10535000FDF784FE0121152000F02CFA152000F045
:105360001DFA07B000BD0000EC020040240100401F
:10537000881000401200010000000940024601F0C0
:10538000010008B1C2F8240C01F01E0000B19062C7
:1053900070470A4602F0010121B1D0F8203C0B43CE
:1053A000C0F8203C02F01E0111B1C3690B43C36178
:1053B00070470000F0B503460D46002010601868E5
:1053C00005EB50001E68B0FBF6F1012909D893F8EF
:1053D0002100202803D10021400510602AE0002090
:1053E000F0BD891E1F2901D90020F9E793F821009B
:1053F00000B9E9B193F82100802801D1042917D31D
:1054000093F82100102801D1022911D393F821002B
:10541000502801D108290BD393F82100902801D1FD
:10542000082905D393F82100D02803D10E2901D2F1
:105430000020D5E793F8210000F0200018B19888EB
:10544000401E84B21CE093F8210000F0100080B1EF
:1054500093F8210000F0400028B198880126C6EB9F
:10546000D00084B20CE098880126C6EB900084B28C
:1054700006E0988800EB40000126C6EBD00084B21D
:1054800001F01F004E094FF0784707EAC666304327
:10549000044E06EA0446304316683043106001208B
:1054A0009EE700000000FF03002101608180817100
:1054B000C171017241810173417381730121C17313
:1054C000002101828174C174416181610177C183CE
:1054D00080F82010202180F8211070470146D1F873
:1054E0002C0C4A6A1043704770B50546002406E04C
:1054F000094850F82400A84200D102E0641C002CA6
:10550000F6D000BF04B904E0702204A109A001F0A4
:10551000A1FA204670BD0000B48200005352435CE3
:10552000447269766572735C66736C5F6C63646306
:105530002E630000696E7374616E6365203C2041C8
:10554000525241595F53495A4528735F6C63644214
:1055500061736573290000002DE9F84305460C4688
:10556000164604B104E0C22256A15CA001F072FA12
:1055700006B104E0C32253A15AA001F06BFA2079CE
:1055800000F00F0000B904E0C4224EA158A001F0C1
:1055900061FA207D00F0070000B904E0C52249A1AE
:1055A0005AA001F057FA207E00F0070000B904E08D
:1055B000C62244A15FA001F04DFA6A46314620465A
:1055C000FFF7F8FE10B90420BDE8F8832846FFF77E
:1055D0008BFF8046614931F81800FCF741F86049BB
:1055E00051F8280000F060FAA86900F49837E08BC1
:1055F00094F821100843217F0E2202EA410108435A
:10560000074394F8200008B147F48077AF611E206B
:10561000A8620120C5F8240C0020E861C5F8200C20
:10562000A0880121C1EB1010FC2101EA8000A179C2
:10563000491E4FF47F4202EA01210843E179491EE5
:10564000120202EA01410843217A491E120202EACB
:105650000161084328606089401EC0F30900217B76
:10566000491E4FF47C4202EA81210843617B491EB6
:105670004FF47F0202EA01410843A17B491E120256
:1056800002EA016108436860208AE17B491E4FF409
:10569000F86202EA8111084300990843A860A07CDF
:1056A00038B1E07C401E00F07F0040F48030E860BC
:1056B00001E00020E86060692861A069686100205D
:1056C00082E700005352435C447269766572735CF2
:1056D00066736C5F6C6364632E630000636F6E6659
:1056E00069670000737263436C6F636B5F487A0095
:1056F00028636F6E6669672D3E70706C20262030BF
:1057000078465529203D3D203055000028636F6EB6
:105710006669672D3E757070657250616E656C418B
:10572000646472202620307830375529203D3D2092
:105730003055000028636F6E6669672D3E6C6F7789
:10574000657250616E656C41646472202620307809
:1057500030375529203D3D2030550000B8820000EB
:10576000BC82000010B50B48FFF7B8FE0446214686
:105770000848FFF703FE04F0040010B101200649B9
:10578000087000BF00BF00BFBFF34F8F00BF00BF56
:1057900000BF10BD003008402802002000F01F02AA
:1057A000012191404209920002F1E022C2F8001169
:1057B0007047000010B5002807DA4A07140E054AA2
:1057C00000F00F031B1FD45403E04A07130E024AD4
:1057D000135410BD18ED00E000E400E010B50146E0
:1057E0004FF04024A36A180E08B1CA6ACA6210BDFD
:1057F00001228A404262704710B54FF04020FFF707
:10580000EDFF044600214FF04020FFF7F1FF044870
:10581000006820B10248214602680020904710BD70
:10582000D808002010B54FF04020FFF7D7FF0446FE
:1058300001214FF04020FFF7DBFF0448406820B112
:105840000248214642680120904710BDD808002038
:1058500010B54FF04020FFF7C1FF044602214FF082
:105860004020FFF7C5FF0448806820B10248214668
:1058700082680220904710BDD808002010B54FF074
:105880004020FFF7ABFF044603214FF04020FFF715
:10589000AFFF0448C06820B102482146C268032017
:1058A000904710BDD808002010B54FF04020FFF7FA
:1058B00095FF044604214FF04020FFF799FF04486C
:1058C000006920B10248214602690420904710BDBA
:1058D000D808002010B54FF04020FFF77FFF0446A6
:1058E00005214FF04020FFF783FF0448406920B1B5
:1058F0000248214642690520904710BDD808002083
:1059000010B54FF04020FFF769FF044606214FF025
:105910004020FFF76DFF0448806920B1024821460E
:1059200082690620904710BDD808002010B54FF0BE
:105930004020FFF753FF044607214FF04020FFF7B8
:1059400057FF0448C06920B102482146C2690720B8
:10595000904710BDD808002001218140024A030A67
:1059600042F82310704700003006004001218140BA
:10597000024A030A42F82310704700002006004044
:105980004FF080600449086000BF0448406D00F09B
:1059900020002028F9D17047300600400000024066
:1059A00010B504461A48844218D20B21002000F09A
:1059B00031F80C21012000F02DF80B21022000F01D
:1059C00029F80B21032000F025F80B21042000F01A
:1059D00021F80B21052000F01DF817E00D21002013
:1059E00000F018F80C21012000F014F80B2102201F
:1059F00000F010F80D21032000F00CF80B2104201A
:105A000000F008F80B21052000F004F810BD00009C
:105A100000E1F50510B501F00F02024C44F820201A
:105A200010BD0000000002402DE9F04105462E0C9B
:105A3000AFB2012000FA07F4202F00D204E05C226C
:105A40000DA113A001F006F8032E08D314488460BA
:105A500000BF134800682040A042FAD00AE0114875
:105A600040F8264000BF0F48403850F8260020403C
:105A7000A042F8D0BDE8F0815352435C447269768D
:105A80006572735C66736C5F72657365742E630018
:105A9000626974506F73203C20333275000000003F
:105AA000000004404001004010B50446204600F0CC
:105AB00005F82046FFF7B8FF10BD00002DE9F041C2
:105AC00005462E0CAFB2012000FA07F4202F00D2B9
:105AD00004E03B220DA113A000F0BCFF032E08D36D
:105AE0001448446000BF1348006820400028FAD0E2
:105AF0000AE0114840F8264000BF0F48203850F80F
:105B0000260020400028F8D0BDE8F0815352435CC5
:105B1000447269766572735C66736C5F72657365F7
:105B2000742E6300626974506F73203C20333275A9
:105B300000000000000004402001004010B50248B1
:105B400002490968884710BD005008406C000020D9
:105B50002DE9F04304460E46DDE9075CC6F3013744
:105B600031466D4800680A2802D30120BDE8F08361
:105B7000022F0FD14FF4707000EA8310084304F530
:105B80004078DFF89491D9F8009008EBC908C8F87C
:105B90000400A6E0012F4FD1604800680A2801D315
:105BA0000120E3E75D48007800F00F000143206822
:105BB00000F0010000B9A5B91FFA82F804F5807061
:105BC000DFF85891D9F8009040F829801FFA82F840
:105BD00004F50070DFF84491D9F8009040F829806E
:105BE00019E0102000EA051001434D4800EA024880
:105BF00004F58070DFF82491D9F8009040F82980EE
:105C0000474800EA024804F50070DFF81091D9F81F
:105C1000009040F8298004F54070DFF8FC80D8F847
:105C2000008000EBC80041603C480068401CDFF881
:105C3000EC80C8F8000054E0384800680A2801D316
:105C4000012093E73548007800F00F004FF470789A
:105C500008EA831840EA08000143206800F00100C8
:105C600000B9A5B91FFA82F804F58070DFF8AC908E
:105C7000D9F8009040F829801FFA82F804F50070E6
:105C8000DFF89890D9F8009040F8298019E01020AA
:105C900000EA05100143224800EA024804F580703A
:105CA000DFF87890D9F8009040F829801C4800EA85
:105CB000024804F50070DFF86490D9F8009040F8CD
:105CC000298004F54070DFF85080D8F8008000EBA0
:105CD000C800416011480068401CDFF84080C8F8E7
:105CE0000000104890F80080012000FA08F004F548
:105CF0004078DFF82490D9F8009048F83900064839
:105D00000068CCF8000004480068401CDFF80880F8
:105D1000C8F80000002029E760000020680000208B
:105D20000000FFFF640000202DE9F041804610488C
:105D300006680F48F438D0F8F00000EA0607354648
:105D4000002400BF0CE005F0010038B1094850F80C
:105D5000240018B1074951F8240080476D08641CDD
:105D60000A2C01DA002DEED101480760BDE8F08170
